{
  "_format": "hh-sol-artifact-1",
  "contractName": "TMDQuest",
  "sourceName": "contracts/TMDQuest.sol",
  "abi": [
    {
      "inputs": [
        {
          "internalType": "string",
          "name": "_baseUri",
          "type": "string"
        },
        {
          "internalType": "string",
          "name": "_collectionName",
          "type": "string"
        },
        {
          "internalType": "string",
          "name": "_tokenCounter",
          "type": "string"
        }
      ],
      "stateMutability": "nonpayable",
      "type": "constructor"
    },
    {
      "anonymous": false,
      "inputs": [
        {
          "indexed": true,
          "internalType": "address",
          "name": "owner",
          "type": "address"
        },
        {
          "indexed": true,
          "internalType": "address",
          "name": "approved",
          "type": "address"
        },
        {
          "indexed": true,
          "internalType": "uint256",
          "name": "tokenId",
          "type": "uint256"
        }
      ],
      "name": "Approval",
      "type": "event"
    },
    {
      "anonymous": false,
      "inputs": [
        {
          "indexed": true,
          "internalType": "address",
          "name": "owner",
          "type": "address"
        },
        {
          "indexed": true,
          "internalType": "address",
          "name": "operator",
          "type": "address"
        },
        {
          "indexed": false,
          "internalType": "bool",
          "name": "approved",
          "type": "bool"
        }
      ],
      "name": "ApprovalForAll",
      "type": "event"
    },
    {
      "anonymous": false,
      "inputs": [
        {
          "indexed": true,
          "internalType": "address",
          "name": "previousOwner",
          "type": "address"
        },
        {
          "indexed": true,
          "internalType": "address",
          "name": "newOwner",
          "type": "address"
        }
      ],
      "name": "OwnershipTransferred",
      "type": "event"
    },
    {
      "anonymous": false,
      "inputs": [
        {
          "indexed": true,
          "internalType": "address",
          "name": "from",
          "type": "address"
        },
        {
          "indexed": true,
          "internalType": "address",
          "name": "to",
          "type": "address"
        },
        {
          "indexed": true,
          "internalType": "uint256",
          "name": "tokenId",
          "type": "uint256"
        }
      ],
      "name": "Transfer",
      "type": "event"
    },
    {
      "inputs": [
        {
          "internalType": "address",
          "name": "to",
          "type": "address"
        },
        {
          "internalType": "uint256",
          "name": "tokenId",
          "type": "uint256"
        }
      ],
      "name": "approve",
      "outputs": [],
      "stateMutability": "nonpayable",
      "type": "function"
    },
    {
      "inputs": [
        {
          "internalType": "address",
          "name": "owner",
          "type": "address"
        }
      ],
      "name": "balanceOf",
      "outputs": [
        {
          "internalType": "uint256",
          "name": "",
          "type": "uint256"
        }
      ],
      "stateMutability": "view",
      "type": "function"
    },
    {
      "inputs": [],
      "name": "baseURI",
      "outputs": [
        {
          "internalType": "string",
          "name": "",
          "type": "string"
        }
      ],
      "stateMutability": "view",
      "type": "function"
    },
    {
      "inputs": [
        {
          "internalType": "uint256",
          "name": "tokenId",
          "type": "uint256"
        }
      ],
      "name": "getApproved",
      "outputs": [
        {
          "internalType": "address",
          "name": "",
          "type": "address"
        }
      ],
      "stateMutability": "view",
      "type": "function"
    },
    {
      "inputs": [
        {
          "internalType": "address",
          "name": "owner",
          "type": "address"
        },
        {
          "internalType": "address",
          "name": "operator",
          "type": "address"
        }
      ],
      "name": "isApprovedForAll",
      "outputs": [
        {
          "internalType": "bool",
          "name": "",
          "type": "bool"
        }
      ],
      "stateMutability": "view",
      "type": "function"
    },
    {
      "inputs": [],
      "name": "mint",
      "outputs": [],
      "stateMutability": "nonpayable",
      "type": "function"
    },
    {
      "inputs": [],
      "name": "name",
      "outputs": [
        {
          "internalType": "string",
          "name": "",
          "type": "string"
        }
      ],
      "stateMutability": "view",
      "type": "function"
    },
    {
      "inputs": [],
      "name": "owner",
      "outputs": [
        {
          "internalType": "address",
          "name": "",
          "type": "address"
        }
      ],
      "stateMutability": "view",
      "type": "function"
    },
    {
      "inputs": [
        {
          "internalType": "uint256",
          "name": "tokenId",
          "type": "uint256"
        }
      ],
      "name": "ownerOf",
      "outputs": [
        {
          "internalType": "address",
          "name": "",
          "type": "address"
        }
      ],
      "stateMutability": "view",
      "type": "function"
    },
    {
      "inputs": [],
      "name": "renounceOwnership",
      "outputs": [],
      "stateMutability": "nonpayable",
      "type": "function"
    },
    {
      "inputs": [
        {
          "internalType": "address",
          "name": "from",
          "type": "address"
        },
        {
          "internalType": "address",
          "name": "to",
          "type": "address"
        },
        {
          "internalType": "uint256",
          "name": "tokenId",
          "type": "uint256"
        }
      ],
      "name": "safeTransferFrom",
      "outputs": [],
      "stateMutability": "nonpayable",
      "type": "function"
    },
    {
      "inputs": [
        {
          "internalType": "address",
          "name": "from",
          "type": "address"
        },
        {
          "internalType": "address",
          "name": "to",
          "type": "address"
        },
        {
          "internalType": "uint256",
          "name": "tokenId",
          "type": "uint256"
        },
        {
          "internalType": "bytes",
          "name": "data",
          "type": "bytes"
        }
      ],
      "name": "safeTransferFrom",
      "outputs": [],
      "stateMutability": "nonpayable",
      "type": "function"
    },
    {
      "inputs": [
        {
          "internalType": "address",
          "name": "operator",
          "type": "address"
        },
        {
          "internalType": "bool",
          "name": "approved",
          "type": "bool"
        }
      ],
      "name": "setApprovalForAll",
      "outputs": [],
      "stateMutability": "nonpayable",
      "type": "function"
    },
    {
      "inputs": [
        {
          "internalType": "string",
          "name": "_questBaseURI",
          "type": "string"
        }
      ],
      "name": "setBaseURI",
      "outputs": [],
      "stateMutability": "nonpayable",
      "type": "function"
    },
    {
      "inputs": [
        {
          "internalType": "bool",
          "name": "_mintable",
          "type": "bool"
        }
      ],
      "name": "setMintable",
      "outputs": [],
      "stateMutability": "nonpayable",
      "type": "function"
    },
    {
      "inputs": [
        {
          "internalType": "bytes4",
          "name": "interfaceId",
          "type": "bytes4"
        }
      ],
      "name": "supportsInterface",
      "outputs": [
        {
          "internalType": "bool",
          "name": "",
          "type": "bool"
        }
      ],
      "stateMutability": "view",
      "type": "function"
    },
    {
      "inputs": [],
      "name": "symbol",
      "outputs": [
        {
          "internalType": "string",
          "name": "",
          "type": "string"
        }
      ],
      "stateMutability": "view",
      "type": "function"
    },
    {
      "inputs": [],
      "name": "tokenIds",
      "outputs": [
        {
          "internalType": "uint256",
          "name": "_value",
          "type": "uint256"
        }
      ],
      "stateMutability": "view",
      "type": "function"
    },
    {
      "inputs": [
        {
          "internalType": "uint256",
          "name": "tokenId",
          "type": "uint256"
        }
      ],
      "name": "tokenURI",
      "outputs": [
        {
          "internalType": "string",
          "name": "",
          "type": "string"
        }
      ],
      "stateMutability": "view",
      "type": "function"
    },
    {
      "inputs": [
        {
          "internalType": "address",
          "name": "from",
          "type": "address"
        },
        {
          "internalType": "address",
          "name": "to",
          "type": "address"
        },
        {
          "internalType": "uint256",
          "name": "tokenId",
          "type": "uint256"
        }
      ],
      "name": "transferFrom",
      "outputs": [],
      "stateMutability": "nonpayable",
      "type": "function"
    },
    {
      "inputs": [
        {
          "internalType": "address",
          "name": "newOwner",
          "type": "address"
        }
      ],
      "name": "transferOwnership",
      "outputs": [],
      "stateMutability": "nonpayable",
      "type": "function"
    }
  ],
  "bytecode": "0x60806040526001600860006101000a81548160ff0219169083151502179055503480156200002c57600080fd5b5060405162002f7338038062002f738339818101604052810190620000529190620002c6565b818181600090805190602001906200006c92919062000198565b5080600190805190602001906200008592919062000198565b505050620000a86200009c620000ca60201b60201c565b620000d260201b60201c565b8260079080519060200190620000c092919062000198565b5050505062000503565b600033905090565b6000600660009054906101000a900473ffffffffffffffffffffffffffffffffffffffff16905081600660006101000a81548173ffffffffffffffffffffffffffffffffffffffff021916908373ffffffffffffffffffffffffffffffffffffffff1602179055508173ffffffffffffffffffffffffffffffffffffffff168173ffffffffffffffffffffffffffffffffffffffff167f8be0079c531659141344cd1fd0a4f28419497f9722a3daafe3b4186f6b6457e060405160405180910390a35050565b828054620001a69062000414565b90600052602060002090601f016020900481019282620001ca576000855562000216565b82601f10620001e557805160ff191683800117855562000216565b8280016001018555821562000216579182015b8281111562000215578251825591602001919060010190620001f8565b5b50905062000225919062000229565b5090565b5b80821115620002445760008160009055506001016200022a565b5090565b60006200025f6200025984620003a8565b6200037f565b9050828152602081018484840111156200027e576200027d620004e3565b5b6200028b848285620003de565b509392505050565b600082601f830112620002ab57620002aa620004de565b5b8151620002bd84826020860162000248565b91505092915050565b600080600060608486031215620002e257620002e1620004ed565b5b600084015167ffffffffffffffff811115620003035762000302620004e8565b5b620003118682870162000293565b935050602084015167ffffffffffffffff811115620003355762000334620004e8565b5b620003438682870162000293565b925050604084015167ffffffffffffffff811115620003675762000366620004e8565b5b620003758682870162000293565b9150509250925092565b60006200038b6200039e565b90506200039982826200044a565b919050565b6000604051905090565b600067ffffffffffffffff821115620003c657620003c5620004af565b5b620003d182620004f2565b9050602081019050919050565b60005b83811015620003fe578082015181840152602081019050620003e1565b838111156200040e576000848401525b50505050565b600060028204905060018216806200042d57607f821691505b6020821081141562000444576200044362000480565b5b50919050565b6200045582620004f2565b810181811067ffffffffffffffff82111715620004775762000476620004af565b5b80604052505050565b7f4e487b7100000000000000000000000000000000000000000000000000000000600052602260045260246000fd5b7f4e487b7100000000000000000000000000000000000000000000000000000000600052604160045260246000fd5b600080fd5b600080fd5b600080fd5b600080fd5b6000601f19601f8301169050919050565b612a6080620005136000396000f3fe608060405234801561001057600080fd5b50600436106101375760003560e01c80636c0360eb116100b857806395d89b411161007c57806395d89b4114610314578063a22cb46514610332578063b88d4fde1461034e578063c87b56dd1461036a578063e985e9c51461039a578063f2fde38b146103ca57610137565b80636c0360eb1461028057806370a082311461029e578063714cff56146102ce578063715018a6146102ec5780638da5cb5b146102f657610137565b806323b872dd116100ff57806323b872dd146101e0578063285d70d4146101fc57806342842e0e1461021857806355f804b3146102345780636352211e1461025057610137565b806301ffc9a71461013c57806306fdde031461016c578063081812fc1461018a578063095ea7b3146101ba5780631249c58b146101d6575b600080fd5b61015660048036038101906101519190611e2d565b6103e6565b60405161016391906121ed565b60405180910390f35b6101746104c8565b6040516101819190612208565b60405180910390f35b6101a4600480360381019061019f9190611ed0565b61055a565b6040516101b19190612186565b60405180910390f35b6101d460048036038101906101cf9190611dc0565b6105a0565b005b6101de6106b8565b005b6101fa60048036038101906101f59190611caa565b6107f0565b005b61021660048036038101906102119190611e00565b610850565b005b610232600480360381019061022d9190611caa565b610875565b005b61024e60048036038101906102499190611e87565b610895565b005b61026a60048036038101906102659190611ed0565b6108b7565b6040516102779190612186565b60405180910390f35b61028861093e565b6040516102959190612208565b60405180910390f35b6102b860048036038101906102b39190611c3d565b6109cc565b6040516102c591906123ea565b60405180910390f35b6102d6610a84565b6040516102e391906123ea565b60405180910390f35b6102f4610a90565b005b6102fe610aa4565b60405161030b9190612186565b60405180910390f35b61031c610ace565b6040516103299190612208565b60405180910390f35b61034c60048036038101906103479190611d80565b610b60565b005b61036860048036038101906103639190611cfd565b610b76565b005b610384600480360381019061037f9190611ed0565b610bd8565b6040516103919190612208565b60405180910390f35b6103b460048036038101906103af9190611c6a565b610ca1565b6040516103c191906121ed565b60405180910390f35b6103e460048036038101906103df9190611c3d565b610d35565b005b60007f80ac58cd000000000000000000000000000000000000000000000000000000007bffffffffffffffffffffffffffffffffffffffffffffffffffffffff1916827bffffffffffffffffffffffffffffffffffffffffffffffffffffffff191614806104b157507f5b5e139f000000000000000000000000000000000000000000000000000000007bffffffffffffffffffffffffffffffffffffffffffffffffffffffff1916827bffffffffffffffffffffffffffffffffffffffffffffffffffffffff1916145b806104c157506104c082610db9565b5b9050919050565b6060600080546104d79061257a565b80601f01602080910402602001604051908101604052809291908181526020018280546105039061257a565b80156105505780601f1061052557610100808354040283529160200191610550565b820191906000526020600020905b81548152906001019060200180831161053357829003601f168201915b5050505050905090565b600061056582610e23565b6004600083815260200190815260200160002060009054906101000a900473ffffffffffffffffffffffffffffffffffffffff169050919050565b60006105ab826108b7565b90508073ffffffffffffffffffffffffffffffffffffffff168373ffffffffffffffffffffffffffffffffffffffff16141561061c576040517f08c379a0000000000000000000000000000000000000000000000000000000008152600401610613906123aa565b60405180910390fd5b8073ffffffffffffffffffffffffffffffffffffffff1661063b610e6e565b73ffffffffffffffffffffffffffffffffffffffff16148061066a575061066981610664610e6e565b610ca1565b5b6106a9576040517f08c379a00000000000000000000000000000000000000000000000000000000081526004016106a0906123ca565b60405180910390fd5b6106b38383610e76565b505050565b60011515600860009054906101000a900460ff16151514801561072c5750600a60006106e2610e6e565b73ffffffffffffffffffffffffffffffffffffffff1673ffffffffffffffffffffffffffffffffffffffff16815260200190815260200160002060009054906101000a900460ff16155b61076b576040517f08c379a00000000000000000000000000000000000000000000000000000000081526004016107629061232a565b60405180910390fd5b6107756009610f2f565b61078f610780610e6e565b61078a6009610f45565b610f53565b6001600a600061079d610e6e565b73ffffffffffffffffffffffffffffffffffffffff1673ffffffffffffffffffffffffffffffffffffffff16815260200190815260200160002060006101000a81548160ff021916908315150217905550565b6108016107fb610e6e565b82611171565b610840576040517f08c379a00000000000000000000000000000000000000000000000000000000081526004016108379061222a565b60405180910390fd5b61084b838383611206565b505050565b610858611500565b80600860006101000a81548160ff02191690831515021790555050565b61089083838360405180602001604052806000815250610b76565b505050565b61089d611500565b80600790805190602001906108b3929190611a51565b5050565b6000806108c38361157e565b9050600073ffffffffffffffffffffffffffffffffffffffff168173ffffffffffffffffffffffffffffffffffffffff161415610935576040517f08c379a000000000000000000000000000000000000000000000000000000000815260040161092c9061238a565b60405180910390fd5b80915050919050565b6007805461094b9061257a565b80601f01602080910402602001604051908101604052809291908181526020018280546109779061257a565b80156109c45780601f10610999576101008083540402835291602001916109c4565b820191906000526020600020905b8154815290600101906020018083116109a757829003601f168201915b505050505081565b60008073ffffffffffffffffffffffffffffffffffffffff168273ffffffffffffffffffffffffffffffffffffffff161415610a3d576040517f08c379a0000000000000000000000000000000000000000000000000000000008152600401610a349061230a565b60405180910390fd5b600360008373ffffffffffffffffffffffffffffffffffffffff1673ffffffffffffffffffffffffffffffffffffffff168152602001908152602001600020549050919050565b60098060000154905081565b610a98611500565b610aa260006115bb565b565b6000600660009054906101000a900473ffffffffffffffffffffffffffffffffffffffff16905090565b606060018054610add9061257a565b80601f0160208091040260200160405190810160405280929190818152602001828054610b099061257a565b8015610b565780601f10610b2b57610100808354040283529160200191610b56565b820191906000526020600020905b815481529060010190602001808311610b3957829003601f168201915b5050505050905090565b610b72610b6b610e6e565b8383611681565b5050565b610b87610b81610e6e565b83611171565b610bc6576040517f08c379a0000000000000000000000000000000000000000000000000000000008152600401610bbd9061222a565b60405180910390fd5b610bd2848484846117ee565b50505050565b6060610be382610e23565b600060078054610bf29061257a565b905011610c0e5760405180602001604052806000815250610c9a565b60078054610c1b9061257a565b80601f0160208091040260200160405190810160405280929190818152602001828054610c479061257a565b8015610c945780601f10610c6957610100808354040283529160200191610c94565b820191906000526020600020905b815481529060010190602001808311610c7757829003601f168201915b50505050505b9050919050565b6000600560008473ffffffffffffffffffffffffffffffffffffffff1673ffffffffffffffffffffffffffffffffffffffff16815260200190815260200160002060008373ffffffffffffffffffffffffffffffffffffffff1673ffffffffffffffffffffffffffffffffffffffff16815260200190815260200160002060009054906101000a900460ff16905092915050565b610d3d611500565b600073ffffffffffffffffffffffffffffffffffffffff168173ffffffffffffffffffffffffffffffffffffffff161415610dad576040517f08c379a0000000000000000000000000000000000000000000000000000000008152600401610da49061226a565b60405180910390fd5b610db6816115bb565b50565b60007f01ffc9a7000000000000000000000000000000000000000000000000000000007bffffffffffffffffffffffffffffffffffffffffffffffffffffffff1916827bffffffffffffffffffffffffffffffffffffffffffffffffffffffff1916149050919050565b610e2c8161184a565b610e6b576040517f08c379a0000000000000000000000000000000000000000000000000000000008152600401610e629061238a565b60405180910390fd5b50565b600033905090565b816004600083815260200190815260200160002060006101000a81548173ffffffffffffffffffffffffffffffffffffffff021916908373ffffffffffffffffffffffffffffffffffffffff160217905550808273ffffffffffffffffffffffffffffffffffffffff16610ee9836108b7565b73ffffffffffffffffffffffffffffffffffffffff167f8c5be1e5ebec7d5bd14f71427d1e84f3dd0314c0f7b2291e5b200ac8c7c3b92560405160405180910390a45050565b6001816000016000828254019250508190555050565b600081600001549050919050565b600073ffffffffffffffffffffffffffffffffffffffff168273ffffffffffffffffffffffffffffffffffffffff161415610fc3576040517f08c379a0000000000000000000000000000000000000000000000000000000008152600401610fba9061234a565b60405180910390fd5b610fcc8161184a565b1561100c576040517f08c379a0000000000000000000000000000000000000000000000000000000008152600401611003906122aa565b60405180910390fd5b61101a60008383600161188b565b6110238161184a565b15611063576040517f08c379a000000000000000000000000000000000000000000000000000000000815260040161105a906122aa565b60405180910390fd5b6001600360008473ffffffffffffffffffffffffffffffffffffffff1673ffffffffffffffffffffffffffffffffffffffff16815260200190815260200160002060008282540192505081905550816002600083815260200190815260200160002060006101000a81548173ffffffffffffffffffffffffffffffffffffffff021916908373ffffffffffffffffffffffffffffffffffffffff160217905550808273ffffffffffffffffffffffffffffffffffffffff16600073ffffffffffffffffffffffffffffffffffffffff167fddf252ad1be2c89b69c2b068fc378daa952ba7f163c4a11628f55a4df523b3ef60405160405180910390a461116d600083836001611891565b5050565b60008061117d836108b7565b90508073ffffffffffffffffffffffffffffffffffffffff168473ffffffffffffffffffffffffffffffffffffffff1614806111bf57506111be8185610ca1565b5b806111fd57508373ffffffffffffffffffffffffffffffffffffffff166111e58461055a565b73ffffffffffffffffffffffffffffffffffffffff16145b91505092915050565b8273ffffffffffffffffffffffffffffffffffffffff16611226826108b7565b73ffffffffffffffffffffffffffffffffffffffff161461127c576040517f08c379a00000000000000000000000000000000000000000000000000000000081526004016112739061228a565b60405180910390fd5b600073ffffffffffffffffffffffffffffffffffffffff168273ffffffffffffffffffffffffffffffffffffffff1614156112ec576040517f08c379a00000000000000000000000000000000000000000000000000000000081526004016112e3906122ca565b60405180910390fd5b6112f9838383600161188b565b8273ffffffffffffffffffffffffffffffffffffffff16611319826108b7565b73ffffffffffffffffffffffffffffffffffffffff161461136f576040517f08c379a00000000000000000000000000000000000000000000000000000000081526004016113669061228a565b60405180910390fd5b6004600082815260200190815260200160002060006101000a81549073ffffffffffffffffffffffffffffffffffffffff02191690556001600360008573ffffffffffffffffffffffffffffffffffffffff1673ffffffffffffffffffffffffffffffffffffffff168152602001908152602001600020600082825403925050819055506001600360008473ffffffffffffffffffffffffffffffffffffffff1673ffffffffffffffffffffffffffffffffffffffff16815260200190815260200160002060008282540192505081905550816002600083815260200190815260200160002060006101000a81548173ffffffffffffffffffffffffffffffffffffffff021916908373ffffffffffffffffffffffffffffffffffffffff160217905550808273ffffffffffffffffffffffffffffffffffffffff168473ffffffffffffffffffffffffffffffffffffffff167fddf252ad1be2c89b69c2b068fc378daa952ba7f163c4a11628f55a4df523b3ef60405160405180910390a46114fb8383836001611891565b505050565b611508610e6e565b73ffffffffffffffffffffffffffffffffffffffff16611526610aa4565b73ffffffffffffffffffffffffffffffffffffffff161461157c576040517f08c379a00000000000000000000000000000000000000000000000000000000081526004016115739061236a565b60405180910390fd5b565b60006002600083815260200190815260200160002060009054906101000a900473ffffffffffffffffffffffffffffffffffffffff169050919050565b6000600660009054906101000a900473ffffffffffffffffffffffffffffffffffffffff16905081600660006101000a81548173ffffffffffffffffffffffffffffffffffffffff021916908373ffffffffffffffffffffffffffffffffffffffff1602179055508173ffffffffffffffffffffffffffffffffffffffff168173ffffffffffffffffffffffffffffffffffffffff167f8be0079c531659141344cd1fd0a4f28419497f9722a3daafe3b4186f6b6457e060405160405180910390a35050565b8173ffffffffffffffffffffffffffffffffffffffff168373ffffffffffffffffffffffffffffffffffffffff1614156116f0576040517f08c379a00000000000000000000000000000000000000000000000000000000081526004016116e7906122ea565b60405180910390fd5b80600560008573ffffffffffffffffffffffffffffffffffffffff1673ffffffffffffffffffffffffffffffffffffffff16815260200190815260200160002060008473ffffffffffffffffffffffffffffffffffffffff1673ffffffffffffffffffffffffffffffffffffffff16815260200190815260200160002060006101000a81548160ff0219169083151502179055508173ffffffffffffffffffffffffffffffffffffffff168373ffffffffffffffffffffffffffffffffffffffff167f17307eab39ab6107e8899845ad3d59bd9653f200f220920489ca2b5937696c31836040516117e191906121ed565b60405180910390a3505050565b6117f9848484611206565b61180584848484611897565b611844576040517f08c379a000000000000000000000000000000000000000000000000000000000815260040161183b9061224a565b60405180910390fd5b50505050565b60008073ffffffffffffffffffffffffffffffffffffffff1661186c8361157e565b73ffffffffffffffffffffffffffffffffffffffff1614159050919050565b50505050565b50505050565b60006118b88473ffffffffffffffffffffffffffffffffffffffff16611a2e565b15611a21578373ffffffffffffffffffffffffffffffffffffffff1663150b7a026118e1610e6e565b8786866040518563ffffffff1660e01b815260040161190394939291906121a1565b602060405180830381600087803b15801561191d57600080fd5b505af192505050801561194e57506040513d601f19601f8201168201806040525081019061194b9190611e5a565b60015b6119d1573d806000811461197e576040519150601f19603f3d011682016040523d82523d6000602084013e611983565b606091505b506000815114156119c9576040517f08c379a00000000000000000000000000000000000000000000000000000000081526004016119c09061224a565b60405180910390fd5b805181602001fd5b63150b7a0260e01b7bffffffffffffffffffffffffffffffffffffffffffffffffffffffff1916817bffffffffffffffffffffffffffffffffffffffffffffffffffffffff191614915050611a26565b600190505b949350505050565b6000808273ffffffffffffffffffffffffffffffffffffffff163b119050919050565b828054611a5d9061257a565b90600052602060002090601f016020900481019282611a7f5760008555611ac6565b82601f10611a9857805160ff1916838001178555611ac6565b82800160010185558215611ac6579182015b82811115611ac5578251825591602001919060010190611aaa565b5b509050611ad39190611ad7565b5090565b5b80821115611af0576000816000905550600101611ad8565b5090565b6000611b07611b028461242a565b612405565b905082815260208101848484011115611b2357611b22612640565b5b611b2e848285612538565b509392505050565b6000611b49611b448461245b565b612405565b905082815260208101848484011115611b6557611b64612640565b5b611b70848285612538565b509392505050565b600081359050611b87816129ce565b92915050565b600081359050611b9c816129e5565b92915050565b600081359050611bb1816129fc565b92915050565b600081519050611bc6816129fc565b92915050565b600082601f830112611be157611be061263b565b5b8135611bf1848260208601611af4565b91505092915050565b600082601f830112611c0f57611c0e61263b565b5b8135611c1f848260208601611b36565b91505092915050565b600081359050611c3781612a13565b92915050565b600060208284031215611c5357611c5261264a565b5b6000611c6184828501611b78565b91505092915050565b60008060408385031215611c8157611c8061264a565b5b6000611c8f85828601611b78565b9250506020611ca085828601611b78565b9150509250929050565b600080600060608486031215611cc357611cc261264a565b5b6000611cd186828701611b78565b9350506020611ce286828701611b78565b9250506040611cf386828701611c28565b9150509250925092565b60008060008060808587031215611d1757611d1661264a565b5b6000611d2587828801611b78565b9450506020611d3687828801611b78565b9350506040611d4787828801611c28565b925050606085013567ffffffffffffffff811115611d6857611d67612645565b5b611d7487828801611bcc565b91505092959194509250565b60008060408385031215611d9757611d9661264a565b5b6000611da585828601611b78565b9250506020611db685828601611b8d565b9150509250929050565b60008060408385031215611dd757611dd661264a565b5b6000611de585828601611b78565b9250506020611df685828601611c28565b9150509250929050565b600060208284031215611e1657611e1561264a565b5b6000611e2484828501611b8d565b91505092915050565b600060208284031215611e4357611e4261264a565b5b6000611e5184828501611ba2565b91505092915050565b600060208284031215611e7057611e6f61264a565b5b6000611e7e84828501611bb7565b91505092915050565b600060208284031215611e9d57611e9c61264a565b5b600082013567ffffffffffffffff811115611ebb57611eba612645565b5b611ec784828501611bfa565b91505092915050565b600060208284031215611ee657611ee561264a565b5b6000611ef484828501611c28565b91505092915050565b611f06816124c4565b82525050565b611f15816124d6565b82525050565b6000611f268261248c565b611f3081856124a2565b9350611f40818560208601612547565b611f498161264f565b840191505092915050565b6000611f5f82612497565b611f6981856124b3565b9350611f79818560208601612547565b611f828161264f565b840191505092915050565b6000611f9a602d836124b3565b9150611fa582612660565b604082019050919050565b6000611fbd6032836124b3565b9150611fc8826126af565b604082019050919050565b6000611fe06026836124b3565b9150611feb826126fe565b604082019050919050565b60006120036025836124b3565b915061200e8261274d565b604082019050919050565b6000612026601c836124b3565b91506120318261279c565b602082019050919050565b60006120496024836124b3565b9150612054826127c5565b604082019050919050565b600061206c6019836124b3565b915061207782612814565b602082019050919050565b600061208f6029836124b3565b915061209a8261283d565b604082019050919050565b60006120b2601e836124b3565b91506120bd8261288c565b602082019050919050565b60006120d56020836124b3565b91506120e0826128b5565b602082019050919050565b60006120f86020836124b3565b9150612103826128de565b602082019050919050565b600061211b6018836124b3565b915061212682612907565b602082019050919050565b600061213e6021836124b3565b915061214982612930565b604082019050919050565b6000612161603d836124b3565b915061216c8261297f565b604082019050919050565b6121808161252e565b82525050565b600060208201905061219b6000830184611efd565b92915050565b60006080820190506121b66000830187611efd565b6121c36020830186611efd565b6121d06040830185612177565b81810360608301526121e28184611f1b565b905095945050505050565b60006020820190506122026000830184611f0c565b92915050565b600060208201905081810360008301526122228184611f54565b905092915050565b6000602082019050818103600083015261224381611f8d565b9050919050565b6000602082019050818103600083015261226381611fb0565b9050919050565b6000602082019050818103600083015261228381611fd3565b9050919050565b600060208201905081810360008301526122a381611ff6565b9050919050565b600060208201905081810360008301526122c381612019565b9050919050565b600060208201905081810360008301526122e38161203c565b9050919050565b600060208201905081810360008301526123038161205f565b9050919050565b6000602082019050818103600083015261232381612082565b9050919050565b60006020820190508181036000830152612343816120a5565b9050919050565b60006020820190508181036000830152612363816120c8565b9050919050565b60006020820190508181036000830152612383816120eb565b9050919050565b600060208201905081810360008301526123a38161210e565b9050919050565b600060208201905081810360008301526123c381612131565b9050919050565b600060208201905081810360008301526123e381612154565b9050919050565b60006020820190506123ff6000830184612177565b92915050565b600061240f612420565b905061241b82826125ac565b919050565b6000604051905090565b600067ffffffffffffffff8211156124455761244461260c565b5b61244e8261264f565b9050602081019050919050565b600067ffffffffffffffff8211156124765761247561260c565b5b61247f8261264f565b9050602081019050919050565b600081519050919050565b600081519050919050565b600082825260208201905092915050565b600082825260208201905092915050565b60006124cf8261250e565b9050919050565b60008115159050919050565b60007fffffffff0000000000000000000000000000000000000000000000000000000082169050919050565b600073ffffffffffffffffffffffffffffffffffffffff82169050919050565b6000819050919050565b82818337600083830152505050565b60005b8381101561256557808201518184015260208101905061254a565b83811115612574576000848401525b50505050565b6000600282049050600182168061259257607f821691505b602082108114156125a6576125a56125dd565b5b50919050565b6125b58261264f565b810181811067ffffffffffffffff821117156125d4576125d361260c565b5b80604052505050565b7f4e487b7100000000000000000000000000000000000000000000000000000000600052602260045260246000fd5b7f4e487b7100000000000000000000000000000000000000000000000000000000600052604160045260246000fd5b600080fd5b600080fd5b600080fd5b600080fd5b6000601f19601f8301169050919050565b7f4552433732313a2063616c6c6572206973206e6f7420746f6b656e206f776e6560008201527f72206f7220617070726f76656400000000000000000000000000000000000000602082015250565b7f4552433732313a207472616e7366657220746f206e6f6e20455243373231526560008201527f63656976657220696d706c656d656e7465720000000000000000000000000000602082015250565b7f4f776e61626c653a206e6577206f776e657220697320746865207a65726f206160008201527f6464726573730000000000000000000000000000000000000000000000000000602082015250565b7f4552433732313a207472616e736665722066726f6d20696e636f72726563742060008201527f6f776e6572000000000000000000000000000000000000000000000000000000602082015250565b7f4552433732313a20746f6b656e20616c7265616479206d696e74656400000000600082015250565b7f4552433732313a207472616e7366657220746f20746865207a65726f2061646460008201527f7265737300000000000000000000000000000000000000000000000000000000602082015250565b7f4552433732313a20617070726f766520746f2063616c6c657200000000000000600082015250565b7f4552433732313a2061646472657373207a65726f206973206e6f74206120766160008201527f6c6964206f776e65720000000000000000000000000000000000000000000000602082015250565b7f4e6f74206d696e7461626c65206f7220616c7265616479206d696e7465640000600082015250565b7f4552433732313a206d696e7420746f20746865207a65726f2061646472657373600082015250565b7f4f776e61626c653a2063616c6c6572206973206e6f7420746865206f776e6572600082015250565b7f4552433732313a20696e76616c696420746f6b656e2049440000000000000000600082015250565b7f4552433732313a20617070726f76616c20746f2063757272656e74206f776e6560008201527f7200000000000000000000000000000000000000000000000000000000000000602082015250565b7f4552433732313a20617070726f76652063616c6c6572206973206e6f7420746f60008201527f6b656e206f776e6572206f7220617070726f76656420666f7220616c6c000000602082015250565b6129d7816124c4565b81146129e257600080fd5b50565b6129ee816124d6565b81146129f957600080fd5b50565b612a05816124e2565b8114612a1057600080fd5b50565b612a1c8161252e565b8114612a2757600080fd5b5056fea264697066735822122055058da02d03a1b3de9341228cc8c37f75700f0fe23c63d068dcfa314b686f8364736f6c63430008070033",
  "linkReferences": {},
  "deployedLinkReferences": {}
}