{
  "_format": "hh-sol-artifact-1",
  "contractName": "TMDQuest",
  "sourceName": "contracts/TMDQuest.sol",
  "abi": [
    {
      "inputs": [
        {
          "internalType": "string",
          "name": "_baseUri",
          "type": "string"
        }
      ],
      "stateMutability": "nonpayable",
      "type": "constructor"
    },
    {
      "anonymous": false,
      "inputs": [
        {
          "indexed": true,
          "internalType": "address",
          "name": "owner",
          "type": "address"
        },
        {
          "indexed": true,
          "internalType": "address",
          "name": "approved",
          "type": "address"
        },
        {
          "indexed": true,
          "internalType": "uint256",
          "name": "tokenId",
          "type": "uint256"
        }
      ],
      "name": "Approval",
      "type": "event"
    },
    {
      "anonymous": false,
      "inputs": [
        {
          "indexed": true,
          "internalType": "address",
          "name": "owner",
          "type": "address"
        },
        {
          "indexed": true,
          "internalType": "address",
          "name": "operator",
          "type": "address"
        },
        {
          "indexed": false,
          "internalType": "bool",
          "name": "approved",
          "type": "bool"
        }
      ],
      "name": "ApprovalForAll",
      "type": "event"
    },
    {
      "anonymous": false,
      "inputs": [
        {
          "indexed": true,
          "internalType": "address",
          "name": "previousOwner",
          "type": "address"
        },
        {
          "indexed": true,
          "internalType": "address",
          "name": "newOwner",
          "type": "address"
        }
      ],
      "name": "OwnershipTransferred",
      "type": "event"
    },
    {
      "anonymous": false,
      "inputs": [
        {
          "indexed": true,
          "internalType": "address",
          "name": "from",
          "type": "address"
        },
        {
          "indexed": true,
          "internalType": "address",
          "name": "to",
          "type": "address"
        },
        {
          "indexed": true,
          "internalType": "uint256",
          "name": "tokenId",
          "type": "uint256"
        }
      ],
      "name": "Transfer",
      "type": "event"
    },
    {
      "inputs": [
        {
          "internalType": "address",
          "name": "to",
          "type": "address"
        },
        {
          "internalType": "uint256",
          "name": "tokenId",
          "type": "uint256"
        }
      ],
      "name": "approve",
      "outputs": [],
      "stateMutability": "nonpayable",
      "type": "function"
    },
    {
      "inputs": [
        {
          "internalType": "address",
          "name": "owner",
          "type": "address"
        }
      ],
      "name": "balanceOf",
      "outputs": [
        {
          "internalType": "uint256",
          "name": "",
          "type": "uint256"
        }
      ],
      "stateMutability": "view",
      "type": "function"
    },
    {
      "inputs": [],
      "name": "baseURI",
      "outputs": [
        {
          "internalType": "string",
          "name": "",
          "type": "string"
        }
      ],
      "stateMutability": "view",
      "type": "function"
    },
    {
      "inputs": [
        {
          "internalType": "uint256",
          "name": "tokenId",
          "type": "uint256"
        }
      ],
      "name": "getApproved",
      "outputs": [
        {
          "internalType": "address",
          "name": "",
          "type": "address"
        }
      ],
      "stateMutability": "view",
      "type": "function"
    },
    {
      "inputs": [
        {
          "internalType": "address",
          "name": "owner",
          "type": "address"
        },
        {
          "internalType": "address",
          "name": "operator",
          "type": "address"
        }
      ],
      "name": "isApprovedForAll",
      "outputs": [
        {
          "internalType": "bool",
          "name": "",
          "type": "bool"
        }
      ],
      "stateMutability": "view",
      "type": "function"
    },
    {
      "inputs": [],
      "name": "mint",
      "outputs": [],
      "stateMutability": "nonpayable",
      "type": "function"
    },
    {
      "inputs": [],
      "name": "name",
      "outputs": [
        {
          "internalType": "string",
          "name": "",
          "type": "string"
        }
      ],
      "stateMutability": "view",
      "type": "function"
    },
    {
      "inputs": [],
      "name": "owner",
      "outputs": [
        {
          "internalType": "address",
          "name": "",
          "type": "address"
        }
      ],
      "stateMutability": "view",
      "type": "function"
    },
    {
      "inputs": [
        {
          "internalType": "uint256",
          "name": "tokenId",
          "type": "uint256"
        }
      ],
      "name": "ownerOf",
      "outputs": [
        {
          "internalType": "address",
          "name": "",
          "type": "address"
        }
      ],
      "stateMutability": "view",
      "type": "function"
    },
    {
      "inputs": [],
      "name": "renounceOwnership",
      "outputs": [],
      "stateMutability": "nonpayable",
      "type": "function"
    },
    {
      "inputs": [
        {
          "internalType": "address",
          "name": "from",
          "type": "address"
        },
        {
          "internalType": "address",
          "name": "to",
          "type": "address"
        },
        {
          "internalType": "uint256",
          "name": "tokenId",
          "type": "uint256"
        }
      ],
      "name": "safeTransferFrom",
      "outputs": [],
      "stateMutability": "nonpayable",
      "type": "function"
    },
    {
      "inputs": [
        {
          "internalType": "address",
          "name": "from",
          "type": "address"
        },
        {
          "internalType": "address",
          "name": "to",
          "type": "address"
        },
        {
          "internalType": "uint256",
          "name": "tokenId",
          "type": "uint256"
        },
        {
          "internalType": "bytes",
          "name": "data",
          "type": "bytes"
        }
      ],
      "name": "safeTransferFrom",
      "outputs": [],
      "stateMutability": "nonpayable",
      "type": "function"
    },
    {
      "inputs": [
        {
          "internalType": "address",
          "name": "operator",
          "type": "address"
        },
        {
          "internalType": "bool",
          "name": "approved",
          "type": "bool"
        }
      ],
      "name": "setApprovalForAll",
      "outputs": [],
      "stateMutability": "nonpayable",
      "type": "function"
    },
    {
      "inputs": [
        {
          "internalType": "string",
          "name": "_questBaseURI",
          "type": "string"
        }
      ],
      "name": "setBaseURI",
      "outputs": [],
      "stateMutability": "nonpayable",
      "type": "function"
    },
    {
      "inputs": [
        {
          "internalType": "bool",
          "name": "_mintable",
          "type": "bool"
        }
      ],
      "name": "setMintable",
      "outputs": [],
      "stateMutability": "nonpayable",
      "type": "function"
    },
    {
      "inputs": [
        {
          "internalType": "bytes4",
          "name": "interfaceId",
          "type": "bytes4"
        }
      ],
      "name": "supportsInterface",
      "outputs": [
        {
          "internalType": "bool",
          "name": "",
          "type": "bool"
        }
      ],
      "stateMutability": "view",
      "type": "function"
    },
    {
      "inputs": [],
      "name": "symbol",
      "outputs": [
        {
          "internalType": "string",
          "name": "",
          "type": "string"
        }
      ],
      "stateMutability": "view",
      "type": "function"
    },
    {
      "inputs": [],
      "name": "tokenIds",
      "outputs": [
        {
          "internalType": "uint256",
          "name": "_value",
          "type": "uint256"
        }
      ],
      "stateMutability": "view",
      "type": "function"
    },
    {
      "inputs": [
        {
          "internalType": "uint256",
          "name": "tokenId",
          "type": "uint256"
        }
      ],
      "name": "tokenURI",
      "outputs": [
        {
          "internalType": "string",
          "name": "",
          "type": "string"
        }
      ],
      "stateMutability": "view",
      "type": "function"
    },
    {
      "inputs": [
        {
          "internalType": "address",
          "name": "from",
          "type": "address"
        },
        {
          "internalType": "address",
          "name": "to",
          "type": "address"
        },
        {
          "internalType": "uint256",
          "name": "tokenId",
          "type": "uint256"
        }
      ],
      "name": "transferFrom",
      "outputs": [],
      "stateMutability": "nonpayable",
      "type": "function"
    },
    {
      "inputs": [
        {
          "internalType": "address",
          "name": "newOwner",
          "type": "address"
        }
      ],
      "name": "transferOwnership",
      "outputs": [],
      "stateMutability": "nonpayable",
      "type": "function"
    }
  ],
  "bytecode": "0x60806040526001600860006101000a81548160ff0219169083151502179055503480156200002c57600080fd5b506040516200325e3803806200325e83398181016040528101906200005291906200032e565b6040518060400160405280600881526020017f544d4451756573740000000000000000000000000000000000000000000000008152506040518060400160405280600381526020017f544d4400000000000000000000000000000000000000000000000000000000008152508160009080519060200190620000d692919062000200565b508060019080519060200190620000ef92919062000200565b50505062000112620001066200013260201b60201c565b6200013a60201b60201c565b80600790805190602001906200012a92919062000200565b505062000503565b600033905090565b6000600660009054906101000a900473ffffffffffffffffffffffffffffffffffffffff16905081600660006101000a81548173ffffffffffffffffffffffffffffffffffffffff021916908373ffffffffffffffffffffffffffffffffffffffff1602179055508173ffffffffffffffffffffffffffffffffffffffff168173ffffffffffffffffffffffffffffffffffffffff167f8be0079c531659141344cd1fd0a4f28419497f9722a3daafe3b4186f6b6457e060405160405180910390a35050565b8280546200020e9062000414565b90600052602060002090601f0160209004810192826200023257600085556200027e565b82601f106200024d57805160ff19168380011785556200027e565b828001600101855582156200027e579182015b828111156200027d57825182559160200191906001019062000260565b5b5090506200028d919062000291565b5090565b5b80821115620002ac57600081600090555060010162000292565b5090565b6000620002c7620002c184620003a8565b6200037f565b905082815260208101848484011115620002e657620002e5620004e3565b5b620002f3848285620003de565b509392505050565b600082601f830112620003135762000312620004de565b5b815162000325848260208601620002b0565b91505092915050565b600060208284031215620003475762000346620004ed565b5b600082015167ffffffffffffffff811115620003685762000367620004e8565b5b6200037684828501620002fb565b91505092915050565b60006200038b6200039e565b90506200039982826200044a565b919050565b6000604051905090565b600067ffffffffffffffff821115620003c657620003c5620004af565b5b620003d182620004f2565b9050602081019050919050565b60005b83811015620003fe578082015181840152602081019050620003e1565b838111156200040e576000848401525b50505050565b600060028204905060018216806200042d57607f821691505b6020821081141562000444576200044362000480565b5b50919050565b6200045582620004f2565b810181811067ffffffffffffffff82111715620004775762000476620004af565b5b80604052505050565b7f4e487b7100000000000000000000000000000000000000000000000000000000600052602260045260246000fd5b7f4e487b7100000000000000000000000000000000000000000000000000000000600052604160045260246000fd5b600080fd5b600080fd5b600080fd5b600080fd5b6000601f19601f8301169050919050565b612d4b80620005136000396000f3fe608060405234801561001057600080fd5b50600436106101375760003560e01c80636c0360eb116100b857806395d89b411161007c57806395d89b4114610314578063a22cb46514610332578063b88d4fde1461034e578063c87b56dd1461036a578063e985e9c51461039a578063f2fde38b146103ca57610137565b80636c0360eb1461028057806370a082311461029e578063714cff56146102ce578063715018a6146102ec5780638da5cb5b146102f657610137565b806323b872dd116100ff57806323b872dd146101e0578063285d70d4146101fc57806342842e0e1461021857806355f804b3146102345780636352211e1461025057610137565b806301ffc9a71461013c57806306fdde031461016c578063081812fc1461018a578063095ea7b3146101ba5780631249c58b146101d6575b600080fd5b61015660048036038101906101519190612089565b6103e6565b604051610163919061249e565b60405180910390f35b6101746104c8565b60405161018191906124b9565b60405180910390f35b6101a4600480360381019061019f919061212c565b61055a565b6040516101b19190612437565b60405180910390f35b6101d460048036038101906101cf919061201c565b6105a0565b005b6101de6106b8565b005b6101fa60048036038101906101f59190611f06565b6107f0565b005b6102166004803603810190610211919061205c565b610850565b005b610232600480360381019061022d9190611f06565b610875565b005b61024e600480360381019061024991906120e3565b610895565b005b61026a6004803603810190610265919061212c565b6108b7565b6040516102779190612437565b60405180910390f35b61028861093e565b60405161029591906124b9565b60405180910390f35b6102b860048036038101906102b39190611e99565b6109cc565b6040516102c5919061269b565b60405180910390f35b6102d6610a84565b6040516102e3919061269b565b60405180910390f35b6102f4610a90565b005b6102fe610aa4565b60405161030b9190612437565b60405180910390f35b61031c610ace565b60405161032991906124b9565b60405180910390f35b61034c60048036038101906103479190611fdc565b610b60565b005b61036860048036038101906103639190611f59565b610b76565b005b610384600480360381019061037f919061212c565b610bd8565b60405161039191906124b9565b60405180910390f35b6103b460048036038101906103af9190611ec6565b610c40565b6040516103c1919061249e565b60405180910390f35b6103e460048036038101906103df9190611e99565b610cd4565b005b60007f80ac58cd000000000000000000000000000000000000000000000000000000007bffffffffffffffffffffffffffffffffffffffffffffffffffffffff1916827bffffffffffffffffffffffffffffffffffffffffffffffffffffffff191614806104b157507f5b5e139f000000000000000000000000000000000000000000000000000000007bffffffffffffffffffffffffffffffffffffffffffffffffffffffff1916827bffffffffffffffffffffffffffffffffffffffffffffffffffffffff1916145b806104c157506104c082610d58565b5b9050919050565b6060600080546104d790612836565b80601f016020809104026020016040519081016040528092919081815260200182805461050390612836565b80156105505780601f1061052557610100808354040283529160200191610550565b820191906000526020600020905b81548152906001019060200180831161053357829003601f168201915b5050505050905090565b600061056582610dc2565b6004600083815260200190815260200160002060009054906101000a900473ffffffffffffffffffffffffffffffffffffffff169050919050565b60006105ab826108b7565b90508073ffffffffffffffffffffffffffffffffffffffff168373ffffffffffffffffffffffffffffffffffffffff16141561061c576040517f08c379a00000000000000000000000000000000000000000000000000000000081526004016106139061265b565b60405180910390fd5b8073ffffffffffffffffffffffffffffffffffffffff1661063b610e0d565b73ffffffffffffffffffffffffffffffffffffffff16148061066a575061066981610664610e0d565b610c40565b5b6106a9576040517f08c379a00000000000000000000000000000000000000000000000000000000081526004016106a09061267b565b60405180910390fd5b6106b38383610e15565b505050565b60011515600860009054906101000a900460ff16151514801561072c5750600a60006106e2610e0d565b73ffffffffffffffffffffffffffffffffffffffff1673ffffffffffffffffffffffffffffffffffffffff16815260200190815260200160002060009054906101000a900460ff16155b61076b576040517f08c379a0000000000000000000000000000000000000000000000000000000008152600401610762906125db565b60405180910390fd5b6107756009610ece565b61078f610780610e0d565b61078a6009610ee4565b610ef2565b6001600a600061079d610e0d565b73ffffffffffffffffffffffffffffffffffffffff1673ffffffffffffffffffffffffffffffffffffffff16815260200190815260200160002060006101000a81548160ff021916908315150217905550565b6108016107fb610e0d565b82611110565b610840576040517f08c379a0000000000000000000000000000000000000000000000000000000008152600401610837906124db565b60405180910390fd5b61084b8383836111a5565b505050565b61085861149f565b80600860006101000a81548160ff02191690831515021790555050565b61089083838360405180602001604052806000815250610b76565b505050565b61089d61149f565b80600790805190602001906108b3929190611cad565b5050565b6000806108c38361151d565b9050600073ffffffffffffffffffffffffffffffffffffffff168173ffffffffffffffffffffffffffffffffffffffff161415610935576040517f08c379a000000000000000000000000000000000000000000000000000000000815260040161092c9061263b565b60405180910390fd5b80915050919050565b6007805461094b90612836565b80601f016020809104026020016040519081016040528092919081815260200182805461097790612836565b80156109c45780601f10610999576101008083540402835291602001916109c4565b820191906000526020600020905b8154815290600101906020018083116109a757829003601f168201915b505050505081565b60008073ffffffffffffffffffffffffffffffffffffffff168273ffffffffffffffffffffffffffffffffffffffff161415610a3d576040517f08c379a0000000000000000000000000000000000000000000000000000000008152600401610a34906125bb565b60405180910390fd5b600360008373ffffffffffffffffffffffffffffffffffffffff1673ffffffffffffffffffffffffffffffffffffffff168152602001908152602001600020549050919050565b60098060000154905081565b610a9861149f565b610aa2600061155a565b565b6000600660009054906101000a900473ffffffffffffffffffffffffffffffffffffffff16905090565b606060018054610add90612836565b80601f0160208091040260200160405190810160405280929190818152602001828054610b0990612836565b8015610b565780601f10610b2b57610100808354040283529160200191610b56565b820191906000526020600020905b815481529060010190602001808311610b3957829003601f168201915b5050505050905090565b610b72610b6b610e0d565b8383611620565b5050565b610b87610b81610e0d565b83611110565b610bc6576040517f08c379a0000000000000000000000000000000000000000000000000000000008152600401610bbd906124db565b60405180910390fd5b610bd28484848461178d565b50505050565b6060610be382610dc2565b6000610bed6117e9565b90506000815111610c0d5760405180602001604052806000815250610c38565b80610c178461187b565b604051602001610c28929190612413565b6040516020818303038152906040525b915050919050565b6000600560008473ffffffffffffffffffffffffffffffffffffffff1673ffffffffffffffffffffffffffffffffffffffff16815260200190815260200160002060008373ffffffffffffffffffffffffffffffffffffffff1673ffffffffffffffffffffffffffffffffffffffff16815260200190815260200160002060009054906101000a900460ff16905092915050565b610cdc61149f565b600073ffffffffffffffffffffffffffffffffffffffff168173ffffffffffffffffffffffffffffffffffffffff161415610d4c576040517f08c379a0000000000000000000000000000000000000000000000000000000008152600401610d439061251b565b60405180910390fd5b610d558161155a565b50565b60007f01ffc9a7000000000000000000000000000000000000000000000000000000007bffffffffffffffffffffffffffffffffffffffffffffffffffffffff1916827bffffffffffffffffffffffffffffffffffffffffffffffffffffffff1916149050919050565b610dcb81611953565b610e0a576040517f08c379a0000000000000000000000000000000000000000000000000000000008152600401610e019061263b565b60405180910390fd5b50565b600033905090565b816004600083815260200190815260200160002060006101000a81548173ffffffffffffffffffffffffffffffffffffffff021916908373ffffffffffffffffffffffffffffffffffffffff160217905550808273ffffffffffffffffffffffffffffffffffffffff16610e88836108b7565b73ffffffffffffffffffffffffffffffffffffffff167f8c5be1e5ebec7d5bd14f71427d1e84f3dd0314c0f7b2291e5b200ac8c7c3b92560405160405180910390a45050565b6001816000016000828254019250508190555050565b600081600001549050919050565b600073ffffffffffffffffffffffffffffffffffffffff168273ffffffffffffffffffffffffffffffffffffffff161415610f62576040517f08c379a0000000000000000000000000000000000000000000000000000000008152600401610f59906125fb565b60405180910390fd5b610f6b81611953565b15610fab576040517f08c379a0000000000000000000000000000000000000000000000000000000008152600401610fa29061255b565b60405180910390fd5b610fb9600083836001611994565b610fc281611953565b15611002576040517f08c379a0000000000000000000000000000000000000000000000000000000008152600401610ff99061255b565b60405180910390fd5b6001600360008473ffffffffffffffffffffffffffffffffffffffff1673ffffffffffffffffffffffffffffffffffffffff16815260200190815260200160002060008282540192505081905550816002600083815260200190815260200160002060006101000a81548173ffffffffffffffffffffffffffffffffffffffff021916908373ffffffffffffffffffffffffffffffffffffffff160217905550808273ffffffffffffffffffffffffffffffffffffffff16600073ffffffffffffffffffffffffffffffffffffffff167fddf252ad1be2c89b69c2b068fc378daa952ba7f163c4a11628f55a4df523b3ef60405160405180910390a461110c60008383600161199a565b5050565b60008061111c836108b7565b90508073ffffffffffffffffffffffffffffffffffffffff168473ffffffffffffffffffffffffffffffffffffffff16148061115e575061115d8185610c40565b5b8061119c57508373ffffffffffffffffffffffffffffffffffffffff166111848461055a565b73ffffffffffffffffffffffffffffffffffffffff16145b91505092915050565b8273ffffffffffffffffffffffffffffffffffffffff166111c5826108b7565b73ffffffffffffffffffffffffffffffffffffffff161461121b576040517f08c379a00000000000000000000000000000000000000000000000000000000081526004016112129061253b565b60405180910390fd5b600073ffffffffffffffffffffffffffffffffffffffff168273ffffffffffffffffffffffffffffffffffffffff16141561128b576040517f08c379a00000000000000000000000000000000000000000000000000000000081526004016112829061257b565b60405180910390fd5b6112988383836001611994565b8273ffffffffffffffffffffffffffffffffffffffff166112b8826108b7565b73ffffffffffffffffffffffffffffffffffffffff161461130e576040517f08c379a00000000000000000000000000000000000000000000000000000000081526004016113059061253b565b60405180910390fd5b6004600082815260200190815260200160002060006101000a81549073ffffffffffffffffffffffffffffffffffffffff02191690556001600360008573ffffffffffffffffffffffffffffffffffffffff1673ffffffffffffffffffffffffffffffffffffffff168152602001908152602001600020600082825403925050819055506001600360008473ffffffffffffffffffffffffffffffffffffffff1673ffffffffffffffffffffffffffffffffffffffff16815260200190815260200160002060008282540192505081905550816002600083815260200190815260200160002060006101000a81548173ffffffffffffffffffffffffffffffffffffffff021916908373ffffffffffffffffffffffffffffffffffffffff160217905550808273ffffffffffffffffffffffffffffffffffffffff168473ffffffffffffffffffffffffffffffffffffffff167fddf252ad1be2c89b69c2b068fc378daa952ba7f163c4a11628f55a4df523b3ef60405160405180910390a461149a838383600161199a565b505050565b6114a7610e0d565b73ffffffffffffffffffffffffffffffffffffffff166114c5610aa4565b73ffffffffffffffffffffffffffffffffffffffff161461151b576040517f08c379a00000000000000000000000000000000000000000000000000000000081526004016115129061261b565b60405180910390fd5b565b60006002600083815260200190815260200160002060009054906101000a900473ffffffffffffffffffffffffffffffffffffffff169050919050565b6000600660009054906101000a900473ffffffffffffffffffffffffffffffffffffffff16905081600660006101000a81548173ffffffffffffffffffffffffffffffffffffffff021916908373ffffffffffffffffffffffffffffffffffffffff1602179055508173ffffffffffffffffffffffffffffffffffffffff168173ffffffffffffffffffffffffffffffffffffffff167f8be0079c531659141344cd1fd0a4f28419497f9722a3daafe3b4186f6b6457e060405160405180910390a35050565b8173ffffffffffffffffffffffffffffffffffffffff168373ffffffffffffffffffffffffffffffffffffffff16141561168f576040517f08c379a00000000000000000000000000000000000000000000000000000000081526004016116869061259b565b60405180910390fd5b80600560008573ffffffffffffffffffffffffffffffffffffffff1673ffffffffffffffffffffffffffffffffffffffff16815260200190815260200160002060008473ffffffffffffffffffffffffffffffffffffffff1673ffffffffffffffffffffffffffffffffffffffff16815260200190815260200160002060006101000a81548160ff0219169083151502179055508173ffffffffffffffffffffffffffffffffffffffff168373ffffffffffffffffffffffffffffffffffffffff167f17307eab39ab6107e8899845ad3d59bd9653f200f220920489ca2b5937696c3183604051611780919061249e565b60405180910390a3505050565b6117988484846111a5565b6117a4848484846119a0565b6117e3576040517f08c379a00000000000000000000000000000000000000000000000000000000081526004016117da906124fb565b60405180910390fd5b50505050565b6060600780546117f890612836565b80601f016020809104026020016040519081016040528092919081815260200182805461182490612836565b80156118715780601f1061184657610100808354040283529160200191611871565b820191906000526020600020905b81548152906001019060200180831161185457829003601f168201915b5050505050905090565b60606000600161188a84611b37565b01905060008167ffffffffffffffff8111156118a9576118a86128f7565b5b6040519080825280601f01601f1916602001820160405280156118db5781602001600182028036833780820191505090505b509050600082602001820190505b600115611948578080600190039150507f3031323334353637383961626364656600000000000000000000000000000000600a86061a8153600a858161193257611931612899565b5b049450600085141561194357611948565b6118e9565b819350505050919050565b60008073ffffffffffffffffffffffffffffffffffffffff166119758361151d565b73ffffffffffffffffffffffffffffffffffffffff1614159050919050565b50505050565b50505050565b60006119c18473ffffffffffffffffffffffffffffffffffffffff16611c8a565b15611b2a578373ffffffffffffffffffffffffffffffffffffffff1663150b7a026119ea610e0d565b8786866040518563ffffffff1660e01b8152600401611a0c9493929190612452565b602060405180830381600087803b158015611a2657600080fd5b505af1925050508015611a5757506040513d601f19601f82011682018060405250810190611a5491906120b6565b60015b611ada573d8060008114611a87576040519150601f19603f3d011682016040523d82523d6000602084013e611a8c565b606091505b50600081511415611ad2576040517f08c379a0000000000000000000000000000000000000000000000000000000008152600401611ac9906124fb565b60405180910390fd5b805181602001fd5b63150b7a0260e01b7bffffffffffffffffffffffffffffffffffffffffffffffffffffffff1916817bffffffffffffffffffffffffffffffffffffffffffffffffffffffff191614915050611b2f565b600190505b949350505050565b600080600090507a184f03e93ff9f4daa797ed6e38ed64bf6a1f0100000000000000008310611b95577a184f03e93ff9f4daa797ed6e38ed64bf6a1f0100000000000000008381611b8b57611b8a612899565b5b0492506040810190505b6d04ee2d6d415b85acef81000000008310611bd2576d04ee2d6d415b85acef81000000008381611bc857611bc7612899565b5b0492506020810190505b662386f26fc100008310611c0157662386f26fc100008381611bf757611bf6612899565b5b0492506010810190505b6305f5e1008310611c2a576305f5e1008381611c2057611c1f612899565b5b0492506008810190505b6127108310611c4f576127108381611c4557611c44612899565b5b0492506004810190505b60648310611c725760648381611c6857611c67612899565b5b0492506002810190505b600a8310611c81576001810190505b80915050919050565b6000808273ffffffffffffffffffffffffffffffffffffffff163b119050919050565b828054611cb990612836565b90600052602060002090601f016020900481019282611cdb5760008555611d22565b82601f10611cf457805160ff1916838001178555611d22565b82800160010185558215611d22579182015b82811115611d21578251825591602001919060010190611d06565b5b509050611d2f9190611d33565b5090565b5b80821115611d4c576000816000905550600101611d34565b5090565b6000611d63611d5e846126db565b6126b6565b905082815260208101848484011115611d7f57611d7e61292b565b5b611d8a8482856127f4565b509392505050565b6000611da5611da08461270c565b6126b6565b905082815260208101848484011115611dc157611dc061292b565b5b611dcc8482856127f4565b509392505050565b600081359050611de381612cb9565b92915050565b600081359050611df881612cd0565b92915050565b600081359050611e0d81612ce7565b92915050565b600081519050611e2281612ce7565b92915050565b600082601f830112611e3d57611e3c612926565b5b8135611e4d848260208601611d50565b91505092915050565b600082601f830112611e6b57611e6a612926565b5b8135611e7b848260208601611d92565b91505092915050565b600081359050611e9381612cfe565b92915050565b600060208284031215611eaf57611eae612935565b5b6000611ebd84828501611dd4565b91505092915050565b60008060408385031215611edd57611edc612935565b5b6000611eeb85828601611dd4565b9250506020611efc85828601611dd4565b9150509250929050565b600080600060608486031215611f1f57611f1e612935565b5b6000611f2d86828701611dd4565b9350506020611f3e86828701611dd4565b9250506040611f4f86828701611e84565b9150509250925092565b60008060008060808587031215611f7357611f72612935565b5b6000611f8187828801611dd4565b9450506020611f9287828801611dd4565b9350506040611fa387828801611e84565b925050606085013567ffffffffffffffff811115611fc457611fc3612930565b5b611fd087828801611e28565b91505092959194509250565b60008060408385031215611ff357611ff2612935565b5b600061200185828601611dd4565b925050602061201285828601611de9565b9150509250929050565b6000806040838503121561203357612032612935565b5b600061204185828601611dd4565b925050602061205285828601611e84565b9150509250929050565b60006020828403121561207257612071612935565b5b600061208084828501611de9565b91505092915050565b60006020828403121561209f5761209e612935565b5b60006120ad84828501611dfe565b91505092915050565b6000602082840312156120cc576120cb612935565b5b60006120da84828501611e13565b91505092915050565b6000602082840312156120f9576120f8612935565b5b600082013567ffffffffffffffff81111561211757612116612930565b5b61212384828501611e56565b91505092915050565b60006020828403121561214257612141612935565b5b600061215084828501611e84565b91505092915050565b61216281612780565b82525050565b61217181612792565b82525050565b60006121828261273d565b61218c8185612753565b935061219c818560208601612803565b6121a58161293a565b840191505092915050565b60006121bb82612748565b6121c58185612764565b93506121d5818560208601612803565b6121de8161293a565b840191505092915050565b60006121f482612748565b6121fe8185612775565b935061220e818560208601612803565b80840191505092915050565b6000612227602d83612764565b91506122328261294b565b604082019050919050565b600061224a603283612764565b91506122558261299a565b604082019050919050565b600061226d602683612764565b9150612278826129e9565b604082019050919050565b6000612290602583612764565b915061229b82612a38565b604082019050919050565b60006122b3601c83612764565b91506122be82612a87565b602082019050919050565b60006122d6602483612764565b91506122e182612ab0565b604082019050919050565b60006122f9601983612764565b915061230482612aff565b602082019050919050565b600061231c602983612764565b915061232782612b28565b604082019050919050565b600061233f601e83612764565b915061234a82612b77565b602082019050919050565b6000612362602083612764565b915061236d82612ba0565b602082019050919050565b6000612385602083612764565b915061239082612bc9565b602082019050919050565b60006123a8601883612764565b91506123b382612bf2565b602082019050919050565b60006123cb602183612764565b91506123d682612c1b565b604082019050919050565b60006123ee603d83612764565b91506123f982612c6a565b604082019050919050565b61240d816127ea565b82525050565b600061241f82856121e9565b915061242b82846121e9565b91508190509392505050565b600060208201905061244c6000830184612159565b92915050565b60006080820190506124676000830187612159565b6124746020830186612159565b6124816040830185612404565b81810360608301526124938184612177565b905095945050505050565b60006020820190506124b36000830184612168565b92915050565b600060208201905081810360008301526124d381846121b0565b905092915050565b600060208201905081810360008301526124f48161221a565b9050919050565b600060208201905081810360008301526125148161223d565b9050919050565b6000602082019050818103600083015261253481612260565b9050919050565b6000602082019050818103600083015261255481612283565b9050919050565b60006020820190508181036000830152612574816122a6565b9050919050565b60006020820190508181036000830152612594816122c9565b9050919050565b600060208201905081810360008301526125b4816122ec565b9050919050565b600060208201905081810360008301526125d48161230f565b9050919050565b600060208201905081810360008301526125f481612332565b9050919050565b6000602082019050818103600083015261261481612355565b9050919050565b6000602082019050818103600083015261263481612378565b9050919050565b600060208201905081810360008301526126548161239b565b9050919050565b60006020820190508181036000830152612674816123be565b9050919050565b60006020820190508181036000830152612694816123e1565b9050919050565b60006020820190506126b06000830184612404565b92915050565b60006126c06126d1565b90506126cc8282612868565b919050565b6000604051905090565b600067ffffffffffffffff8211156126f6576126f56128f7565b5b6126ff8261293a565b9050602081019050919050565b600067ffffffffffffffff821115612727576127266128f7565b5b6127308261293a565b9050602081019050919050565b600081519050919050565b600081519050919050565b600082825260208201905092915050565b600082825260208201905092915050565b600081905092915050565b600061278b826127ca565b9050919050565b60008115159050919050565b60007fffffffff0000000000000000000000000000000000000000000000000000000082169050919050565b600073ffffffffffffffffffffffffffffffffffffffff82169050919050565b6000819050919050565b82818337600083830152505050565b60005b83811015612821578082015181840152602081019050612806565b83811115612830576000848401525b50505050565b6000600282049050600182168061284e57607f821691505b60208210811415612862576128616128c8565b5b50919050565b6128718261293a565b810181811067ffffffffffffffff821117156128905761288f6128f7565b5b80604052505050565b7f4e487b7100000000000000000000000000000000000000000000000000000000600052601260045260246000fd5b7f4e487b7100000000000000000000000000000000000000000000000000000000600052602260045260246000fd5b7f4e487b7100000000000000000000000000000000000000000000000000000000600052604160045260246000fd5b600080fd5b600080fd5b600080fd5b600080fd5b6000601f19601f8301169050919050565b7f4552433732313a2063616c6c6572206973206e6f7420746f6b656e206f776e6560008201527f72206f7220617070726f76656400000000000000000000000000000000000000602082015250565b7f4552433732313a207472616e7366657220746f206e6f6e20455243373231526560008201527f63656976657220696d706c656d656e7465720000000000000000000000000000602082015250565b7f4f776e61626c653a206e6577206f776e657220697320746865207a65726f206160008201527f6464726573730000000000000000000000000000000000000000000000000000602082015250565b7f4552433732313a207472616e736665722066726f6d20696e636f72726563742060008201527f6f776e6572000000000000000000000000000000000000000000000000000000602082015250565b7f4552433732313a20746f6b656e20616c7265616479206d696e74656400000000600082015250565b7f4552433732313a207472616e7366657220746f20746865207a65726f2061646460008201527f7265737300000000000000000000000000000000000000000000000000000000602082015250565b7f4552433732313a20617070726f766520746f2063616c6c657200000000000000600082015250565b7f4552433732313a2061646472657373207a65726f206973206e6f74206120766160008201527f6c6964206f776e65720000000000000000000000000000000000000000000000602082015250565b7f4e6f74206d696e7461626c65206f7220616c7265616479206d696e7465640000600082015250565b7f4552433732313a206d696e7420746f20746865207a65726f2061646472657373600082015250565b7f4f776e61626c653a2063616c6c6572206973206e6f7420746865206f776e6572600082015250565b7f4552433732313a20696e76616c696420746f6b656e2049440000000000000000600082015250565b7f4552433732313a20617070726f76616c20746f2063757272656e74206f776e6560008201527f7200000000000000000000000000000000000000000000000000000000000000602082015250565b7f4552433732313a20617070726f76652063616c6c6572206973206e6f7420746f60008201527f6b656e206f776e6572206f7220617070726f76656420666f7220616c6c000000602082015250565b612cc281612780565b8114612ccd57600080fd5b50565b612cd981612792565b8114612ce457600080fd5b50565b612cf08161279e565b8114612cfb57600080fd5b50565b612d07816127ea565b8114612d1257600080fd5b5056fea264697066735822122033475c62976f60a5117d95bfa5cfd511cc3ad73d355e891c6f65666dc246ed6864736f6c63430008070033",
  "linkReferences": {},
  "deployedLinkReferences": {}
}